{
  "_format": "hh-sol-artifact-1",
  "contractName": "Transactions",
  "sourceName": "contracts/Transaction.sol",
  "abi": [
    {
      "anonymous": false,
      "inputs": [
        {
          "indexed": false,
          "internalType": "address",
          "name": "from",
          "type": "address"
        },
        {
          "indexed": false,
          "internalType": "address",
          "name": "reciever",
          "type": "address"
        },
        {
          "indexed": false,
          "internalType": "uint256",
          "name": "amount",
          "type": "uint256"
        },
        {
          "indexed": false,
          "internalType": "string",
          "name": "message",
          "type": "string"
        },
        {
          "indexed": false,
          "internalType": "string",
          "name": "keyword",
          "type": "string"
        },
        {
          "indexed": false,
          "internalType": "uint256",
          "name": "timestamp",
          "type": "uint256"
        }
      ],
      "name": "Transfer",
      "type": "event"
    },
    {
      "inputs": [
        {
          "internalType": "address payable",
          "name": "reciever",
          "type": "address"
        },
        {
          "internalType": "uint256",
          "name": "amount",
          "type": "uint256"
        },
        {
          "internalType": "string",
          "name": "message",
          "type": "string"
        },
        {
          "internalType": "string",
          "name": "keyword",
          "type": "string"
        }
      ],
      "name": "addtoBlockchain",
      "outputs": [],
      "stateMutability": "nonpayable",
      "type": "function"
    },
    {
      "inputs": [],
      "name": "getAllTransactions",
      "outputs": [
        {
          "components": [
            {
              "internalType": "address",
              "name": "from",
              "type": "address"
            },
            {
              "internalType": "address",
              "name": "reciever",
              "type": "address"
            },
            {
              "internalType": "uint256",
              "name": "amount",
              "type": "uint256"
            },
            {
              "internalType": "string",
              "name": "message",
              "type": "string"
            },
            {
              "internalType": "string",
              "name": "keyword",
              "type": "string"
            },
            {
              "internalType": "uint256",
              "name": "timestamp",
              "type": "uint256"
            }
          ],
          "internalType": "struct Transactions.TransferStruct[]",
          "name": "",
          "type": "tuple[]"
        }
      ],
      "stateMutability": "view",
      "type": "function"
    },
    {
      "inputs": [],
      "name": "getTransactionCount",
      "outputs": [
        {
          "internalType": "uint256",
          "name": "",
          "type": "uint256"
        }
      ],
      "stateMutability": "view",
      "type": "function"
    },
    {
      "inputs": [
        {
          "internalType": "uint256",
          "name": "",
          "type": "uint256"
        }
      ],
      "name": "transactions",
      "outputs": [
        {
          "internalType": "address",
          "name": "from",
          "type": "address"
        },
        {
          "internalType": "address",
          "name": "reciever",
          "type": "address"
        },
        {
          "internalType": "uint256",
          "name": "amount",
          "type": "uint256"
        },
        {
          "internalType": "string",
          "name": "message",
          "type": "string"
        },
        {
          "internalType": "string",
          "name": "keyword",
          "type": "string"
        },
        {
          "internalType": "uint256",
          "name": "timestamp",
          "type": "uint256"
        }
      ],
      "stateMutability": "view",
      "type": "function"
    }
  ],
  "bytecode": "0x608060405234801561001057600080fd5b50611096806100206000396000f3fe608060405234801561001057600080fd5b506004361061004c5760003560e01c80631ab324f51461005157806327506f531461006d5780632e7700f01461008b5780639ace38c2146100a9575b600080fd5b61006b60048036038101906100669190610866565b6100de565b005b610075610290565b6040516100829190610b06565b60405180910390f35b6100936104d3565b6040516100a09190610b37565b60405180910390f35b6100c360048036038101906100be9190610b52565b6104dc565b6040516100d596959493929190610bd8565b60405180910390f35b6000808154809291906100f090610c76565b919050555060016040518060c001604052803373ffffffffffffffffffffffffffffffffffffffff1681526020018673ffffffffffffffffffffffffffffffffffffffff16815260200185815260200184815260200183815260200142815250908060018154018082558091505060019003906000526020600020906006020160009091909190915060008201518160000160006101000a81548173ffffffffffffffffffffffffffffffffffffffff021916908373ffffffffffffffffffffffffffffffffffffffff16021790555060208201518160010160006101000a81548173ffffffffffffffffffffffffffffffffffffffff021916908373ffffffffffffffffffffffffffffffffffffffff1602179055506040820151816002015560608201518160030190816102269190610eca565b50608082015181600401908161023c9190610eca565b5060a0820151816005015550507f5e245fe3ab1aa0e8ad77928e6d608e234861c6f4cc61f42cdb647db3f4f3ca4633858585854260405161028296959493929190610ff1565b60405180910390a150505050565b60606001805480602002602001604051908101604052809291908181526020016000905b828210156104ca57838290600052602060002090600602016040518060c00160405290816000820160009054906101000a900473ffffffffffffffffffffffffffffffffffffffff1673ffffffffffffffffffffffffffffffffffffffff1673ffffffffffffffffffffffffffffffffffffffff1681526020016001820160009054906101000a900473ffffffffffffffffffffffffffffffffffffffff1673ffffffffffffffffffffffffffffffffffffffff1673ffffffffffffffffffffffffffffffffffffffff1681526020016002820154815260200160038201805461039d90610ced565b80601f01602080910402602001604051908101604052809291908181526020018280546103c990610ced565b80156104165780601f106103eb57610100808354040283529160200191610416565b820191906000526020600020905b8154815290600101906020018083116103f957829003601f168201915b5050505050815260200160048201805461042f90610ced565b80601f016020809104026020016040519081016040528092919081815260200182805461045b90610ced565b80156104a85780601f1061047d576101008083540402835291602001916104a8565b820191906000526020600020905b81548152906001019060200180831161048b57829003601f168201915b50505050508152602001600582015481525050815260200190600101906102b4565b50505050905090565b60008054905090565b600181815481106104ec57600080fd5b90600052602060002090600602016000915090508060000160009054906101000a900473ffffffffffffffffffffffffffffffffffffffff16908060010160009054906101000a900473ffffffffffffffffffffffffffffffffffffffff169080600201549080600301805461056190610ced565b80601f016020809104026020016040519081016040528092919081815260200182805461058d90610ced565b80156105da5780601f106105af576101008083540402835291602001916105da565b820191906000526020600020905b8154815290600101906020018083116105bd57829003601f168201915b5050505050908060040180546105ef90610ced565b80601f016020809104026020016040519081016040528092919081815260200182805461061b90610ced565b80156106685780601f1061063d57610100808354040283529160200191610668565b820191906000526020600020905b81548152906001019060200180831161064b57829003601f168201915b5050505050908060050154905086565b6000604051905090565b600080fd5b600080fd5b600073ffffffffffffffffffffffffffffffffffffffff82169050919050565b60006106b78261068c565b9050919050565b6106c7816106ac565b81146106d257600080fd5b50565b6000813590506106e4816106be565b92915050565b6000819050919050565b6106fd816106ea565b811461070857600080fd5b50565b60008135905061071a816106f4565b92915050565b600080fd5b600080fd5b6000601f19601f8301169050919050565b7f4e487b7100000000000000000000000000000000000000000000000000000000600052604160045260246000fd5b6107738261072a565b810181811067ffffffffffffffff821117156107925761079161073b565b5b80604052505050565b60006107a5610678565b90506107b1828261076a565b919050565b600067ffffffffffffffff8211156107d1576107d061073b565b5b6107da8261072a565b9050602081019050919050565b82818337600083830152505050565b6000610809610804846107b6565b61079b565b90508281526020810184848401111561082557610824610725565b5b6108308482856107e7565b509392505050565b600082601f83011261084d5761084c610720565b5b813561085d8482602086016107f6565b91505092915050565b600080600080608085870312156108805761087f610682565b5b600061088e878288016106d5565b945050602061089f8782880161070b565b935050604085013567ffffffffffffffff8111156108c0576108bf610687565b5b6108cc87828801610838565b925050606085013567ffffffffffffffff8111156108ed576108ec610687565b5b6108f987828801610838565b91505092959194509250565b600081519050919050565b600082825260208201905092915050565b6000819050602082019050919050565b600061093c8261068c565b9050919050565b61094c81610931565b82525050565b61095b816106ea565b82525050565b600081519050919050565b600082825260208201905092915050565b60005b8381101561099b578082015181840152602081019050610980565b60008484015250505050565b60006109b282610961565b6109bc818561096c565b93506109cc81856020860161097d565b6109d58161072a565b840191505092915050565b600060c0830160008301516109f86000860182610943565b506020830151610a0b6020860182610943565b506040830151610a1e6040860182610952565b5060608301518482036060860152610a3682826109a7565b91505060808301518482036080860152610a5082826109a7565b91505060a0830151610a6560a0860182610952565b508091505092915050565b6000610a7c83836109e0565b905092915050565b6000602082019050919050565b6000610a9c82610905565b610aa68185610910565b935083602082028501610ab885610921565b8060005b85811015610af45784840389528151610ad58582610a70565b9450610ae083610a84565b925060208a01995050600181019050610abc565b50829750879550505050505092915050565b60006020820190508181036000830152610b208184610a91565b905092915050565b610b31816106ea565b82525050565b6000602082019050610b4c6000830184610b28565b92915050565b600060208284031215610b6857610b67610682565b5b6000610b768482850161070b565b91505092915050565b610b8881610931565b82525050565b600082825260208201905092915050565b6000610baa82610961565b610bb48185610b8e565b9350610bc481856020860161097d565b610bcd8161072a565b840191505092915050565b600060c082019050610bed6000830189610b7f565b610bfa6020830188610b7f565b610c076040830187610b28565b8181036060830152610c198186610b9f565b90508181036080830152610c2d8185610b9f565b9050610c3c60a0830184610b28565b979650505050505050565b7f4e487b7100000000000000000000000000000000000000000000000000000000600052601160045260246000fd5b6000610c81826106ea565b91507fffffffffffffffffffffffffffffffffffffffffffffffffffffffffffffffff8203610cb357610cb2610c47565b5b600182019050919050565b7f4e487b7100000000000000000000000000000000000000000000000000000000600052602260045260246000fd5b60006002820490506001821680610d0557607f821691505b602082108103610d1857610d17610cbe565b5b50919050565b60008190508160005260206000209050919050565b60006020601f8301049050919050565b600082821b905092915050565b600060088302610d807fffffffffffffffffffffffffffffffffffffffffffffffffffffffffffffffff82610d43565b610d8a8683610d43565b95508019841693508086168417925050509392505050565b6000819050919050565b6000610dc7610dc2610dbd846106ea565b610da2565b6106ea565b9050919050565b6000819050919050565b610de183610dac565b610df5610ded82610dce565b848454610d50565b825550505050565b600090565b610e0a610dfd565b610e15818484610dd8565b505050565b5b81811015610e3957610e2e600082610e02565b600181019050610e1b565b5050565b601f821115610e7e57610e4f81610d1e565b610e5884610d33565b81016020851015610e67578190505b610e7b610e7385610d33565b830182610e1a565b50505b505050565b600082821c905092915050565b6000610ea160001984600802610e83565b1980831691505092915050565b6000610eba8383610e90565b9150826002028217905092915050565b610ed382610961565b67ffffffffffffffff811115610eec57610eeb61073b565b5b610ef68254610ced565b610f01828285610e3d565b600060209050601f831160018114610f345760008415610f22578287015190505b610f2c8582610eae565b865550610f94565b601f198416610f4286610d1e565b60005b82811015610f6a57848901518255600182019150602085019450602081019050610f45565b86831015610f875784890151610f83601f891682610e90565b8355505b6001600288020188555050505b505050505050565b6000610fb7610fb2610fad8461068c565b610da2565b61068c565b9050919050565b6000610fc982610f9c565b9050919050565b6000610fdb82610fbe565b9050919050565b610feb81610fd0565b82525050565b600060c0820190506110066000830189610b7f565b6110136020830188610fe2565b6110206040830187610b28565b81810360608301526110328186610b9f565b905081810360808301526110468185610b9f565b905061105560a0830184610b28565b97965050505050505056fea2646970667358221220c06807d345336685915a143d5860c6c681c585abb053e3c1512d5e2648f90b9064736f6c63430008130033",
  "linkReferences": {},
  "deployedLinkReferences": {}
}